:020000040800F2
:100000000050002039090008E5080008F108000840
:10001000F7080008FD0800080309000800000000B8
:1000200000000000000000000000000009090008B6
:100030001509000800000000210900086D070008EC
:100040008109000881090008810900088109000868
:100050008109000881090008810900088109000858
:100060008109000881090008810900088109000848
:100070008109000881090008810900084D01000874
:100080008109000881090008810900088109000828
:100090008109000881090008810900088109000818
:1000A0008109000881090008810900088109000808
:1000B00081090008810900088109000881090008F8
:1000C00081090008810900088109000881090008E8
:1000D00081090008810900088109000881090008D8
:1000E000810900088109000881090008000000005A
:1000F0000000000000000000000000000000000000
:0C01000000000000000000005FF808F1A3
:10010C0010B5054C237833B9044B13B10448AFF345
:10011C0000800123237010BD20000020000000008F
:10012C00CC09000808B5034B1BB103490348AFF3D6
:10013C00008008BD0000000024000020CC0900084D
:10014C0080B500AF024B1B68984700BF80BD00BF55
:10015C005C00002080B483B000AF0346FB710B46FB
:10016C00BB7113467B71FB79012B3DD0022B73D0F5
:10017C00002B00D0ADE0BB79072B17D8574B1B6871
:10018C00BA7992000F2101FA02F2D2431146534A76
:10019C000B401360514B1B687979BA79920001FAC4
:1001AC0002F211464D4A0B4313608DE0BB79102BC4
:1001BC0000F28A80494B5B68BA79083A92000F21A9
:1001CC0001FA02F2D2431146444A0B405360434BAE
:1001DC005B687979BA79083A920001FA02F2114611
:1001EC003E4A0B4353606FE0BB79072B17D83C4B4F
:1001FC001B68BA7992000F2101FA02F2D243114620
:10020C00374A0B401360364B1B687979BA799200E8
:10021C0001FA02F21146324A0B43136056E0BB79E5
:10022C00102B53D82E4B5B68BA79083A92000F21E9
:10023C0001FA02F2D2431146294A0B405360284B73
:10024C005B687979BA79083A920001FA02F21146A0
:10025C00234A0B43536039E0BB79072B17D8214B4A
:10026C001B68BA7992000F2101FA02F2D2431146AF
:10027C001C4A0B4013601B4B1B687979BA799200AE
:10028C0001FA02F21146174A0B43136020E0BB79C6
:10029C00102B1DD8134B5B68BA79083A92000F21CA
:1002AC0001FA02F2D24311460E4A0B4053600D4B39
:1002BC005B687979BA79083A920001FA02F2114630
:1002CC00084A0B43536003E000BF02E000BF00E0AC
:1002DC0000BF00BF0C37BD4680BC70470008014012
:1002EC00000C01400010014080B483B000AF034605
:1002FC00FB710B46BB7113467B71FB79012B1ED036
:10030C00022B36D0002B00D04DE07B79002B0AD08D
:10031C00274BDB68BA79012101FA02F21146244A13
:10032C000B43D3603FE0224BDB68BA79012101FA21
:10033C0002F2D24311461E4A0B40D36033E07B7964
:10034C00002B0AD01B4BDB68BA79012101FA02F2AF
:10035C001146184A0B43D36025E0164BDB68BA797B
:10036C00012101FA02F2D2431146124A0B40D3602A
:10037C0019E07B79002B0AD00F4BDB68BA7901218D
:10038C0001FA02F211460C4A0B43D3600AE00A4B05
:10039C00DB68BA79012101FA02F2D2431146064A0E
:1003AC000B40D36000BF00BF0C37BD4680BC70470C
:1003BC0000080140000C01400010014080B400AF67
:1003CC002E4B00221A602E4B00221A602B4B1B68FE
:1003DC002A4A43F001031360284B1B68274A43F059
:1003EC0080031360254B1B68244A43F4803313604D
:1003FC00224B224A1B681360204B1B681F4A43F494
:10040C00002313601E4B1B681D4A43F0C06313602E
:10041C001B4B1B681A4A43F010031360184B1B68E4
:10042C00174A43F400631360154B1B68144A43F4DA
:10043C0080731360124B1B68114A43F480431360A2
:10044C000F4B1B680E4A43F4803313600C4B0C4A61
:10045C001B6813600A4B1B68094A43F400231360A2
:10046C00064B064A1B681360054B1B68044A43F095
:10047C000103136000BFBD4680BC704700100240F2
:10048C000410024080B483B000AF03460A46FB71EF
:10049C001346BB71FB79012B1BD0022B0DD0002B0B
:1004AC0000D022E0134B1B68BA79012101FA02F249
:1004BC001146104A0B43136017E00F4B1B68BA79B7
:1004CC003E3A012101FA02F211460B4A0B4313602A
:1004DC000BE00A4B1B68BA79203A012101FA02F2AF
:1004EC001146064A0B43136000BF00BF0C37BD46D4
:1004FC0080BC704714100240181002401C100240BF
:10050C0080B400AF024B1846BD4680BC704700BF9C
:10051C0000127A0080B582B000AF78604A210220C8
:10052C00FFF7B0FF40210220FFF7ACFF7B681B797F
:10053C00002B00F08680012B00D083E07B68187CB8
:10054C007B685B7C0B221946FFF704FE7B68987B6B
:10055C007B68DB7B0B221946FFF7FCFD7B68187B65
:10056C007B685B7B04221946FFF7F4FD7B68987C63
:10057C007B68DB7C0B221946FFF7ECFD7B681B6864
:10058C0000221A607B681B681A687B681B7A194604
:10059C007B681B680A431A607B681B681A687B6857
:1005AC00DB795B0019467B681B680A431A607B6821
:1005BC001B681A687B681B799B0019467B681B6853
:1005CC000A431A607B681B681A687B689B7ADB019C
:1005DC0019467B681B680A431A607B681B681A689B
:1005EC007B681B6822F400721A607B681B681A68AF
:1005FC007B685B7ADB0219467B681B680A431A60CE
:10060C007B681B6800225A607B681B6819687B68D2
:10061C001A684FF6C7730B4013607B681B681A6827
:10062C007B689B79DB0019467B681B680A431A6060
:10063C007B681B681A687B681B6842F040021A6072
:10064C0000E000BF00BF0837BD4680BD80B487B056
:10065C0000AFF860B9601346FB710023FB75FB68B3
:10066C001B681A68FB681B6842F040021A60BB6882
:10067C001A78FB681B68DA6000BFFB681B689B6814
:10068C00FB681B68DB68DBB218461C37BD4680BCB8
:10069C007047000080B483B000AF78600B46FB70ED
:1006AC00FB78002B02D0012B0BD014E0114B1B68F4
:1006BC00104A23F0040313607B68DB080E4A1360B6
:1006CC0009E00C4B1B680B4A43F0040313600A4A05
:1006DC007B68136000BF084B1B68084AB2FBF3F33E
:1006EC00074A02FB03F3074A136000BF0C37BD46F1
:1006FC0080BC704710E000E048000020A097190073
:10070C0040420F004400002080B483B000AF7860FA
:10071C003960104A3B6813600F4B00221A700F4B64
:10072C0000229A607B68013B0C4A23F07F435360A4
:10073C000A4B1B68094A43F002031360074B1B6802
:10074C00064A43F00103136000BF0C37BD4680BC62
:10075C00704700BF3C0000204000002010E000E08B
:10076C0098B500AF0B4B1B6898470B4BD3E90012A5
:10077C004B1C42F10004084AC2E90034074B1B78B9
:10078C00002B05D0064B1B68054A23F001031360B0
:10079C0000BF98BD3C00002050000020400000200D
:1007AC0010E000E090B583B000AF174B18CB7B6026
:1007BC00164B1B687A689A4205D80122002100204A
:1007CC00FFF792FD1CE0114B1A68114B1B68134488
:1007DC007A689A4205D2002200210020FFF784FD9E
:1007EC000EE00A4B1A680A4B1B6813447A689A424B
:1007FC0006D3054A4FF000034FF00004C2E9003461
:10080C0000BF0C37BD4690BD5000002000000020FA
:10081C000400002080B582B000AF786039600A4BCC
:10082C001B680A4AA2FB03235B0A09491846FFF717
:10083C006BFF084A7B681360074A3B68136000BF74
:10084C000837BD4680BD00BF6C000020D34D621040
:10085C00B1070008000000200400002080B500AFA4
:10086C00FFF7ACFD40210220FFF70CFEFFF748FE1E
:10087C000246174B1A60164B1B6800211846FFF7EF
:10088C0009FF0A2209210020FFF764FC04220A2137
:10089C000020FFF75FFC012200210020FFF75AFC2B
:1008AC00012200210020FFF71FFD02210220FFF78B
:1008BC00B1FF0848FFF72EFE0F226D210548FFF708
:1008CC00C5FE0F226D210348FFF7C0FEF9E700BFFC
:1008DC006C0000200800002080B400AF00BFBD46B3
:1008EC0080BC704780B400AFFEE780B400AFFEE779
:1008FC0080B400AFFEE780B400AFFEE780B400AF79
:10090C0000BFBD4680BC704780B400AF00BFBD4681
:10091C0080BC704780B400AF00BFBD4680BC704740
:10092C0080B400AF00BFBD4680BC70470C480D4979
:10093C000D4A002302E0D458C4500433C4188C422E
:10094C00F9D30A4A0A4C002301E013600432A24294
:10095C00FBD3FFF7E5FF00F00FF8FFF77FFF7047C1
:10096C00000000201C000020EC09000820000020E2
:10097C0070000020FEE7000070B500250C4E0D4CF9
:10098C00A41BA410A54209D100F01AF800250A4EA8
:10099C000A4CA41BA410A54205D170BD56F82530F5
:1009AC0098470135EEE756F8253098470135F2E7C0
:1009BC00E4090008E4090008E4090008E809000853
:1009CC00F8B500BFF8BC08BC9E467047F8B500BF30
:0809DC00F8BC08BC9E46704700
:0409E40031010008D5
:0409E8000D010008F5
:1009EC0064000000640000000030014001000200BF
:0C09FC00000000010006000700050004D8
:0400000508000939AD
:00000001FF
